{
  "contractName": "DocumentNotarization",
  "abi": [
    {
      "anonymous": false,
      "inputs": [
        {
          "indexed": true,
          "internalType": "bytes32",
          "name": "documentHash",
          "type": "bytes32"
        },
        {
          "indexed": true,
          "internalType": "address",
          "name": "notary",
          "type": "address"
        },
        {
          "indexed": false,
          "internalType": "uint256",
          "name": "timestamp",
          "type": "uint256"
        },
        {
          "indexed": false,
          "internalType": "uint256",
          "name": "expirationTime",
          "type": "uint256"
        }
      ],
      "name": "DocumentNotarized",
      "type": "event"
    },
    {
      "anonymous": false,
      "inputs": [
        {
          "indexed": true,
          "internalType": "bytes32",
          "name": "documentHash",
          "type": "bytes32"
        },
        {
          "indexed": true,
          "internalType": "address",
          "name": "notary",
          "type": "address"
        },
        {
          "indexed": false,
          "internalType": "uint256",
          "name": "timestamp",
          "type": "uint256"
        }
      ],
      "name": "NotarizationRevoked",
      "type": "event"
    },
    {
      "inputs": [
        {
          "internalType": "bytes32",
          "name": "",
          "type": "bytes32"
        }
      ],
      "name": "documents",
      "outputs": [
        {
          "internalType": "address",
          "name": "notary",
          "type": "address"
        },
        {
          "internalType": "uint256",
          "name": "notarizationTime",
          "type": "uint256"
        },
        {
          "internalType": "bool",
          "name": "exists",
          "type": "bool"
        },
        {
          "internalType": "bool",
          "name": "revoked",
          "type": "bool"
        },
        {
          "internalType": "uint256",
          "name": "expirationTime",
          "type": "uint256"
        }
      ],
      "stateMutability": "view",
      "type": "function",
      "constant": true
    },
    {
      "inputs": [
        {
          "internalType": "bytes32",
          "name": "documentHash",
          "type": "bytes32"
        },
        {
          "internalType": "uint256",
          "name": "expirationDuration",
          "type": "uint256"
        }
      ],
      "name": "notarizeDocument",
      "outputs": [],
      "stateMutability": "nonpayable",
      "type": "function"
    },
    {
      "inputs": [
        {
          "internalType": "bytes32",
          "name": "documentHash",
          "type": "bytes32"
        }
      ],
      "name": "revokeNotarization",
      "outputs": [],
      "stateMutability": "nonpayable",
      "type": "function"
    },
    {
      "inputs": [
        {
          "internalType": "bytes32",
          "name": "documentHash",
          "type": "bytes32"
        }
      ],
      "name": "isDocumentNotarized",
      "outputs": [
        {
          "internalType": "bool",
          "name": "",
          "type": "bool"
        }
      ],
      "stateMutability": "view",
      "type": "function",
      "constant": true
    },
    {
      "inputs": [
        {
          "internalType": "bytes32",
          "name": "documentHash",
          "type": "bytes32"
        }
      ],
      "name": "isDocumentExpired",
      "outputs": [
        {
          "internalType": "bool",
          "name": "",
          "type": "bool"
        }
      ],
      "stateMutability": "view",
      "type": "function",
      "constant": true
    },
    {
      "inputs": [
        {
          "internalType": "address",
          "name": "notary",
          "type": "address"
        }
      ],
      "name": "searchDocumentsByNotary",
      "outputs": [
        {
          "internalType": "bytes32[]",
          "name": "",
          "type": "bytes32[]"
        }
      ],
      "stateMutability": "view",
      "type": "function",
      "constant": true
    }
  ],
  "bytecode": "0x608060405234801561001057600080fd5b50610f5e806100206000396000f3fe608060405234801561001057600080fd5b50600436106100625760003560e01c80632a81f956146100675780632b2805db1461009757806373dd9c97146100cb5780637493032f146100e7578063cc71760614610117578063f60fd65514610147575b600080fd5b610081600480360381019061007c91906109c2565b610163565b60405161008e9190610c9a565b60405180910390f35b6100b160048036038101906100ac91906109c2565b6101c1565b6040516100c2959493929190610c25565b60405180910390f35b6100e560048036038101906100e091906109eb565b610231565b005b61010160048036038101906100fc91906109c2565b6103f6565b60405161010e9190610c9a565b60405180910390f35b610131600480360381019061012c9190610999565b610451565b60405161013e9190610c78565b60405180910390f35b610161600480360381019061015c91906109c2565b61075b565b005b60008060008084815260200190815260200160002090508060020160009054906101000a900460ff1680156101a757508060020160019054906101000a900460ff16155b80156101b957506101b7836103f6565b155b915050919050565b60006020528060005260406000206000915090508060000160009054906101000a900473ffffffffffffffffffffffffffffffffffffffff16908060010154908060020160009054906101000a900460ff16908060020160019054906101000a900460ff16908060030154905085565b60008083815260200190815260200160002060020160009054906101000a900460ff1615610294576040517f08c379a000000000000000000000000000000000000000000000000000000000815260040161028b90610cf5565b60405180910390fd5b600081426102a29190610dc3565b90506040518060a001604052803373ffffffffffffffffffffffffffffffffffffffff1681526020014281526020016001151581526020016000151581526020018281525060008085815260200190815260200160002060008201518160000160006101000a81548173ffffffffffffffffffffffffffffffffffffffff021916908373ffffffffffffffffffffffffffffffffffffffff1602179055506020820151816001015560408201518160020160006101000a81548160ff02191690831515021790555060608201518160020160016101000a81548160ff021916908315150217905550608082015181600301559050506103a083610916565b3373ffffffffffffffffffffffffffffffffffffffff16837f2f219a4e90dc9076dc0ace238a148b7ba570e77d1191f5a6993195e815b5a3b342846040516103e9929190610d50565b60405180910390a3505050565b60008060008084815260200190815260200160002090508060020160009054906101000a900460ff16801561043a57508060020160019054906101000a900460ff16155b80156104495750806003015442115b915050919050565b60606000805b6002548110156105745760006001828154811061049d577f4e487b7100000000000000000000000000000000000000000000000000000000600052603260045260246000fd5b906000526020600020015490508473ffffffffffffffffffffffffffffffffffffffff1660008083815260200190815260200160002060000160009054906101000a900473ffffffffffffffffffffffffffffffffffffffff1673ffffffffffffffffffffffffffffffffffffffff1614801561053a575060008082815260200190815260200160002060020160019054906101000a900460ff16155b801561054c575061054a816103f6565b155b1561056057828061055c90610e6b565b9350505b50808061056c90610e6b565b915050610457565b5060008167ffffffffffffffff8111156105b7577f4e487b7100000000000000000000000000000000000000000000000000000000600052604160045260246000fd5b6040519080825280602002602001820160405280156105e55781602001602082028036833780820191505090505b5090506000805b60025481101561074f57600060018281548110610632577f4e487b7100000000000000000000000000000000000000000000000000000000600052603260045260246000fd5b906000526020600020015490508673ffffffffffffffffffffffffffffffffffffffff1660008083815260200190815260200160002060000160009054906101000a900473ffffffffffffffffffffffffffffffffffffffff1673ffffffffffffffffffffffffffffffffffffffff161480156106cf575060008082815260200190815260200160002060020160019054906101000a900460ff16155b80156106e157506106df816103f6565b155b1561073b5780848481518110610720577f4e487b7100000000000000000000000000000000000000000000000000000000600052603260045260246000fd5b602002602001018181525050828061073790610e6b565b9350505b50808061074790610e6b565b9150506105ec565b50819350505050919050565b600080600083815260200190815260200160002090508060020160009054906101000a900460ff166107c2576040517f08c379a00000000000000000000000000000000000000000000000000000000081526004016107b990610cb5565b60405180910390fd5b8060000160009054906101000a900473ffffffffffffffffffffffffffffffffffffffff1673ffffffffffffffffffffffffffffffffffffffff163373ffffffffffffffffffffffffffffffffffffffff1614610854576040517f08c379a000000000000000000000000000000000000000000000000000000000815260040161084b90610d15565b60405180910390fd5b8060020160019054906101000a900460ff16156108a6576040517f08c379a000000000000000000000000000000000000000000000000000000000815260040161089d90610cd5565b60405180910390fd5b60018160020160016101000a81548160ff0219169083151502179055503373ffffffffffffffffffffffffffffffffffffffff16827f71b55ed86564e3856b8010ac72cbee47876e7006fba982257d0d881cf6e831ae4260405161090a9190610d35565b60405180910390a35050565b60018190806001815401808255809150506001900390600052602060002001600090919091909150556002600081548092919061095290610e6b565b919050555050565b60008135905061096981610ee3565b92915050565b60008135905061097e81610efa565b92915050565b60008135905061099381610f11565b92915050565b6000602082840312156109ab57600080fd5b60006109b98482850161095a565b91505092915050565b6000602082840312156109d457600080fd5b60006109e28482850161096f565b91505092915050565b600080604083850312156109fe57600080fd5b6000610a0c8582860161096f565b9250506020610a1d85828601610984565b9150509250929050565b6000610a338383610abb565b60208301905092915050565b610a4881610e19565b82525050565b6000610a5982610d89565b610a638185610da1565b9350610a6e83610d79565b8060005b83811015610a9f578151610a868882610a27565b9750610a9183610d94565b925050600181019050610a72565b5085935050505092915050565b610ab581610e2b565b82525050565b610ac481610e37565b82525050565b6000610ad7601a83610db2565b91507f446f63756d656e74206973206e6f74206e6f746172697a65642e0000000000006000830152602082019050919050565b6000610b17602683610db2565b91507f4e6f746172697a6174696f6e2068617320616c7265616479206265656e20726560008301527f766f6b65642e00000000000000000000000000000000000000000000000000006020830152604082019050919050565b6000610b7d601e83610db2565b91507f446f63756d656e7420697320616c7265616479206e6f746172697a65642e00006000830152602082019050919050565b6000610bbd602d83610db2565b91507f4f6e6c7920746865206e6f746172792063616e207265766f6b6520746869732060008301527f6e6f746172697a6174696f6e2e000000000000000000000000000000000000006020830152604082019050919050565b610c1f81610e61565b82525050565b600060a082019050610c3a6000830188610a3f565b610c476020830187610c16565b610c546040830186610aac565b610c616060830185610aac565b610c6e6080830184610c16565b9695505050505050565b60006020820190508181036000830152610c928184610a4e565b905092915050565b6000602082019050610caf6000830184610aac565b92915050565b60006020820190508181036000830152610cce81610aca565b9050919050565b60006020820190508181036000830152610cee81610b0a565b9050919050565b60006020820190508181036000830152610d0e81610b70565b9050919050565b60006020820190508181036000830152610d2e81610bb0565b9050919050565b6000602082019050610d4a6000830184610c16565b92915050565b6000604082019050610d656000830185610c16565b610d726020830184610c16565b9392505050565b6000819050602082019050919050565b600081519050919050565b6000602082019050919050565b600082825260208201905092915050565b600082825260208201905092915050565b6000610dce82610e61565b9150610dd983610e61565b9250827fffffffffffffffffffffffffffffffffffffffffffffffffffffffffffffffff03821115610e0e57610e0d610eb4565b5b828201905092915050565b6000610e2482610e41565b9050919050565b60008115159050919050565b6000819050919050565b600073ffffffffffffffffffffffffffffffffffffffff82169050919050565b6000819050919050565b6000610e7682610e61565b91507fffffffffffffffffffffffffffffffffffffffffffffffffffffffffffffffff821415610ea957610ea8610eb4565b5b600182019050919050565b7f4e487b7100000000000000000000000000000000000000000000000000000000600052601160045260246000fd5b610eec81610e19565b8114610ef757600080fd5b50565b610f0381610e37565b8114610f0e57600080fd5b50565b610f1a81610e61565b8114610f2557600080fd5b5056fea264697066735822122088bf37174d849d02020b2622e2f183952f265fb451dba23202c55c3a56f6482364736f6c63430008000033",
  "immutableReferences": {},
  "source": "\r\npragma solidity ^0.8.0;\r\n\r\ncontract DocumentNotarization {\r\n    // Event emitted when a document is notarized\r\n    event DocumentNotarized(\r\n        bytes32 indexed documentHash,\r\n        address indexed notary,\r\n        uint256 timestamp,\r\n        uint256 expirationTime\r\n    );\r\n\r\n    // Event emitted when a notarization is revoked\r\n    event NotarizationRevoked(\r\n        bytes32 indexed documentHash,\r\n        address indexed notary,\r\n        uint256 timestamp\r\n    );\r\n\r\n    // Struct to store information about the notarized document\r\n    struct NotarizedDocument {\r\n        address notary; \r\n        uint256 notarizationTime; \r\n        bool exists; \r\n        bool revoked; \r\n        uint256 expirationTime; \r\n    }\r\n\r\n    // Mapping to store notarized documents by their hash\r\n    mapping(bytes32 => NotarizedDocument) public documents;\r\n\r\n    // Optionally: Keep track of all document hashes (for searching)\r\n    bytes32[] private documentHashes;\r\n    uint256 private totalDocuments;\r\n\r\n    // Function to notarize a document\r\n    function notarizeDocument(\r\n        bytes32 documentHash,\r\n        uint256 expirationDuration\r\n    ) external {\r\n        require(\r\n            !documents[documentHash].exists,\r\n            \"Document is already notarized.\"\r\n        );\r\n\r\n        uint256 expirationTime = block.timestamp + expirationDuration;\r\n\r\n        // Create a new notarized document entry\r\n        documents[documentHash] = NotarizedDocument({\r\n            notary: msg.sender,\r\n            notarizationTime: block.timestamp,\r\n            exists: true,\r\n            revoked: false,\r\n            expirationTime: expirationTime // Set the expiration time\r\n        });\r\n\r\n        // Add document hash to the tracking array\r\n        addDocumentHash(documentHash);\r\n\r\n        emit DocumentNotarized(\r\n            documentHash,\r\n            msg.sender,\r\n            block.timestamp,\r\n            expirationTime\r\n        );\r\n    }\r\n\r\n    // Function to revoke a notarization\r\n    function revokeNotarization(bytes32 documentHash) external {\r\n        NotarizedDocument storage doc = documents[documentHash];\r\n        require(doc.exists, \"Document is not notarized.\");\r\n        require(\r\n            msg.sender == doc.notary,\r\n            \"Only the notary can revoke this notarization.\"\r\n        );\r\n        require(!doc.revoked, \"Notarization has already been revoked.\");\r\n\r\n        // Revoke the notarization\r\n        doc.revoked = true;\r\n\r\n        emit NotarizationRevoked(documentHash, msg.sender, block.timestamp);\r\n    }\r\n\r\n    // Function to check if a document is notarized\r\n    function isDocumentNotarized(\r\n        bytes32 documentHash\r\n    ) external view returns (bool) {\r\n        NotarizedDocument storage doc = documents[documentHash];\r\n        return doc.exists && !doc.revoked && !isDocumentExpired(documentHash);\r\n    }\r\n\r\n    // Function to check if a document is expired\r\n    function isDocumentExpired(\r\n        bytes32 documentHash\r\n    ) public view returns (bool) {\r\n        NotarizedDocument storage doc = documents[documentHash];\r\n        return\r\n            doc.exists && !doc.revoked && block.timestamp > doc.expirationTime;\r\n    }\r\n\r\n    // Function to search for notarized documents by notary address\r\n    function searchDocumentsByNotary(\r\n        address notary\r\n    ) external view returns (bytes32[] memory) {\r\n        uint256 count = 0;\r\n\r\n        // Count how many documents this notary has notarized\r\n        for (uint256 i = 0; i < totalDocuments; i++) {\r\n            bytes32 docHash = documentHashes[i]; // Assuming you maintain an array of document hashes\r\n            if (\r\n                documents[docHash].notary == notary &&\r\n                !documents[docHash].revoked &&\r\n                !isDocumentExpired(docHash)\r\n            ) {\r\n                count++;\r\n            }\r\n        }\r\n\r\n      \r\n        bytes32[] memory foundDocuments = new bytes32[](count);\r\n        uint256 index = 0;\r\n\r\n        for (uint256 i = 0; i < totalDocuments; i++) {\r\n            bytes32 docHash = documentHashes[i];\r\n            if (\r\n                documents[docHash].notary == notary &&\r\n                !documents[docHash].revoked &&\r\n                !isDocumentExpired(docHash)\r\n            ) {\r\n                foundDocuments[index] = docHash;\r\n                index++;\r\n            }\r\n        }\r\n\r\n        return foundDocuments;\r\n    }\r\n\r\n    // Helper function to add document hashes to the array\r\n    function addDocumentHash(bytes32 documentHash) internal {\r\n        documentHashes.push(documentHash);\r\n        totalDocuments++;\r\n    }\r\n}\r\n",
  "sourcePath": "C:\\Users\\Asus\\Documents\\GitHub\\AI-Blockchain-notary-system\\src\\contract\\contracts\\MultiPartyNotarization.sol",
  "compiler": {
    "name": "solc",
    "version": "0.8.0+commit.c7dfd78e.Emscripten.clang"
  },
  "schemaVersion": "3.4.16",
  "updatedAt": "2025-06-16T06:14:00.375Z",
  "networkType": "ethereum",
  "devdoc": {
    "kind": "dev",
    "methods": {},
    "version": 1
  },
  "userdoc": {
    "kind": "user",
    "methods": {},
    "version": 1
  }
}