{
  "contractName": "MultiPartyNotarization",
  "abi": [
    {
      "anonymous": false,
      "inputs": [
        {
          "indexed": true,
          "internalType": "bytes32",
          "name": "documentHash",
          "type": "bytes32"
        },
        {
          "indexed": false,
          "internalType": "uint256",
          "name": "timestamp",
          "type": "uint256"
        }
      ],
      "name": "DocumentFullyNotarized",
      "type": "event"
    },
    {
      "anonymous": false,
      "inputs": [
        {
          "indexed": true,
          "internalType": "bytes32",
          "name": "documentHash",
          "type": "bytes32"
        },
        {
          "indexed": true,
          "internalType": "address",
          "name": "signer",
          "type": "address"
        },
        {
          "indexed": false,
          "internalType": "uint256",
          "name": "timestamp",
          "type": "uint256"
        }
      ],
      "name": "DocumentSigned",
      "type": "event"
    },
    {
      "inputs": [
        {
          "internalType": "bytes32",
          "name": "",
          "type": "bytes32"
        }
      ],
      "name": "documents",
      "outputs": [
        {
          "internalType": "uint256",
          "name": "signCount",
          "type": "uint256"
        },
        {
          "internalType": "bool",
          "name": "isFullyNotarized",
          "type": "bool"
        },
        {
          "internalType": "uint256",
          "name": "notarizationTime",
          "type": "uint256"
        }
      ],
      "stateMutability": "view",
      "type": "function",
      "constant": true
    },
    {
      "inputs": [
        {
          "internalType": "bytes32",
          "name": "documentHash",
          "type": "bytes32"
        },
        {
          "internalType": "address[]",
          "name": "signers",
          "type": "address[]"
        }
      ],
      "name": "initializeDocument",
      "outputs": [],
      "stateMutability": "nonpayable",
      "type": "function"
    },
    {
      "inputs": [
        {
          "internalType": "bytes32",
          "name": "documentHash",
          "type": "bytes32"
        }
      ],
      "name": "signDocument",
      "outputs": [],
      "stateMutability": "nonpayable",
      "type": "function"
    },
    {
      "inputs": [
        {
          "internalType": "bytes32",
          "name": "documentHash",
          "type": "bytes32"
        }
      ],
      "name": "isFullyNotarized",
      "outputs": [
        {
          "internalType": "bool",
          "name": "",
          "type": "bool"
        }
      ],
      "stateMutability": "view",
      "type": "function",
      "constant": true
    },
    {
      "inputs": [
        {
          "internalType": "bytes32",
          "name": "documentHash",
          "type": "bytes32"
        },
        {
          "internalType": "address",
          "name": "signer",
          "type": "address"
        }
      ],
      "name": "isRequiredSigner",
      "outputs": [
        {
          "internalType": "bool",
          "name": "",
          "type": "bool"
        }
      ],
      "stateMutability": "view",
      "type": "function",
      "constant": true
    },
    {
      "inputs": [
        {
          "internalType": "string",
          "name": "documentContent",
          "type": "string"
        }
      ],
      "name": "hashDocument",
      "outputs": [
        {
          "internalType": "bytes32",
          "name": "",
          "type": "bytes32"
        }
      ],
      "stateMutability": "pure",
      "type": "function",
      "constant": true
    }
  ],
  "bytecode": "0x608060405234801561001057600080fd5b50610ec0806100206000396000f3fe608060405234801561001057600080fd5b50600436106100615760003560e01c80620bcccf14610066578063166cba3814610096578063221ef937146100b25780632b2805db146100e25780633cdf7aa314610114578063a522c86414610144575b600080fd5b610080600480360381019061007b91906108b7565b610160565b60405161008d9190610b60565b60405180910390f35b6100b060048036038101906100ab91906107fe565b610190565b005b6100cc60048036038101906100c79190610827565b61040b565b6040516100d99190610b45565b60405180910390f35b6100fc60048036038101906100f791906107fe565b6104f9565b60405161010b93929190610c36565b60405180910390f35b61012e600480360381019061012991906107fe565b610530565b60405161013b9190610b45565b60405180910390f35b61015e60048036038101906101599190610863565b61055c565b005b6000816040516020016101739190610b2e565b604051602081830303815290604052805190602001209050919050565b8061019b813361040b565b6101da576040517f08c379a00000000000000000000000000000000000000000000000000000000081526004016101d190610bdb565b60405180910390fd5b600080600084815260200190815260200160002090508060030160009054906101000a900460ff1615610242576040517f08c379a000000000000000000000000000000000000000000000000000000000815260040161023990610bbb565b60405180910390fd5b8060010160003373ffffffffffffffffffffffffffffffffffffffff1673ffffffffffffffffffffffffffffffffffffffff16815260200190815260200160002060009054906101000a900460ff16156102d1576040517f08c379a00000000000000000000000000000000000000000000000000000000081526004016102c890610bfb565b60405180910390fd5b60018160010160003373ffffffffffffffffffffffffffffffffffffffff1673ffffffffffffffffffffffffffffffffffffffff16815260200190815260200160002060006101000a81548160ff02191690831515021790555080600201600081548092919061034090610db5565b91905055503373ffffffffffffffffffffffffffffffffffffffff16837fcb4765881b79e3f3e656357a384db0c5ebdbdad01ab9fbc82ea10f38b7730dbc4260405161038c9190610c1b565b60405180910390a38060000180549050816002015414156104065760018160030160006101000a81548160ff021916908315150217905550428160040181905550827fba185e1fe63735155c8fb3774416d9e87f16acb8f943f4b0e45bcff14489104c426040516103fd9190610c1b565b60405180910390a25b505050565b600080600080858152602001908152602001600020905060005b81600001805490508110156104ec578373ffffffffffffffffffffffffffffffffffffffff16826000018281548110610487577f4e487b7100000000000000000000000000000000000000000000000000000000600052603260045260246000fd5b9060005260206000200160009054906101000a900473ffffffffffffffffffffffffffffffffffffffff1673ffffffffffffffffffffffffffffffffffffffff1614156104d9576001925050506104f3565b80806104e490610db5565b915050610425565b5060009150505b92915050565b60006020528060005260406000206000915090508060020154908060030160009054906101000a900460ff16908060040154905083565b600080600083815260200190815260200160002060030160009054906101000a900460ff169050919050565b600080600084815260200190815260200160002060000180549050146105b7576040517f08c379a00000000000000000000000000000000000000000000000000000000081526004016105ae90610b9b565b60405180910390fd5b60018151116105fb576040517f08c379a00000000000000000000000000000000000000000000000000000000081526004016105f290610b7b565b60405180910390fd5b600080600084815260200190815260200160002090508181600001908051906020019061062992919061062f565b50505050565b8280548282559060005260206000209081019282156106a8579160200282015b828111156106a75782518260006101000a81548173ffffffffffffffffffffffffffffffffffffffff021916908373ffffffffffffffffffffffffffffffffffffffff1602179055509160200191906001019061064f565b5b5090506106b591906106b9565b5090565b5b808211156106d25760008160009055506001016106ba565b5090565b60006106e96106e484610c9e565b610c6d565b9050808382526020820190508285602086028201111561070857600080fd5b60005b85811015610738578161071e8882610780565b84526020840193506020830192505060018101905061070b565b5050509392505050565b600061075561075084610cca565b610c6d565b90508281526020810184848401111561076d57600080fd5b610778848285610d73565b509392505050565b60008135905061078f81610e5c565b92915050565b600082601f8301126107a657600080fd5b81356107b68482602086016106d6565b91505092915050565b6000813590506107ce81610e73565b92915050565b600082601f8301126107e557600080fd5b81356107f5848260208601610742565b91505092915050565b60006020828403121561081057600080fd5b600061081e848285016107bf565b91505092915050565b6000806040838503121561083a57600080fd5b6000610848858286016107bf565b925050602061085985828601610780565b9150509250929050565b6000806040838503121561087657600080fd5b6000610884858286016107bf565b925050602083013567ffffffffffffffff8111156108a157600080fd5b6108ad85828601610795565b9150509250929050565b6000602082840312156108c957600080fd5b600082013567ffffffffffffffff8111156108e357600080fd5b6108ef848285016107d4565b91505092915050565b61090181610d33565b82525050565b61091081610d3f565b82525050565b600061092182610cfa565b61092b8185610d16565b935061093b818560208601610d82565b80840191505092915050565b6000610954602283610d05565b91507f4174206c656173742074776f207369676e65727320617265207265717569726560008301527f642e0000000000000000000000000000000000000000000000000000000000006020830152604082019050919050565b60006109ba601d83610d05565b91507f446f63756d656e7420616c726561647920696e697469616c697a65642e0000006000830152602082019050919050565b60006109fa602483610d05565b91507f446f63756d656e7420697320616c72656164792066756c6c79206e6f7461726960008301527f7a65642e000000000000000000000000000000000000000000000000000000006020830152604082019050919050565b6000610a60603083610d05565b91507f596f7520617265206e6f742061207265717569726564207369676e657220666f60008301527f72207468697320646f63756d656e742e000000000000000000000000000000006020830152604082019050919050565b6000610ac6602683610d05565b91507f596f75206861766520616c7265616479207369676e6564207468697320646f6360008301527f756d656e742e00000000000000000000000000000000000000000000000000006020830152604082019050919050565b610b2881610d69565b82525050565b6000610b3a8284610916565b915081905092915050565b6000602082019050610b5a60008301846108f8565b92915050565b6000602082019050610b756000830184610907565b92915050565b60006020820190508181036000830152610b9481610947565b9050919050565b60006020820190508181036000830152610bb4816109ad565b9050919050565b60006020820190508181036000830152610bd4816109ed565b9050919050565b60006020820190508181036000830152610bf481610a53565b9050919050565b60006020820190508181036000830152610c1481610ab9565b9050919050565b6000602082019050610c306000830184610b1f565b92915050565b6000606082019050610c4b6000830186610b1f565b610c5860208301856108f8565b610c656040830184610b1f565b949350505050565b6000604051905081810181811067ffffffffffffffff82111715610c9457610c93610e2d565b5b8060405250919050565b600067ffffffffffffffff821115610cb957610cb8610e2d565b5b602082029050602081019050919050565b600067ffffffffffffffff821115610ce557610ce4610e2d565b5b601f19601f8301169050602081019050919050565b600081519050919050565b600082825260208201905092915050565b600081905092915050565b6000610d2c82610d49565b9050919050565b60008115159050919050565b6000819050919050565b600073ffffffffffffffffffffffffffffffffffffffff82169050919050565b6000819050919050565b82818337600083830152505050565b60005b83811015610da0578082015181840152602081019050610d85565b83811115610daf576000848401525b50505050565b6000610dc082610d69565b91507fffffffffffffffffffffffffffffffffffffffffffffffffffffffffffffffff821415610df357610df2610dfe565b5b600182019050919050565b7f4e487b7100000000000000000000000000000000000000000000000000000000600052601160045260246000fd5b7f4e487b7100000000000000000000000000000000000000000000000000000000600052604160045260246000fd5b610e6581610d21565b8114610e7057600080fd5b50565b610e7c81610d3f565b8114610e8757600080fd5b5056fea26469706673582212201f3c9d1cbe6a6db6f5d6598d87268a95a4789654843c403de241a585ba57b7ce64736f6c63430008000033",
  "immutableReferences": {},
  "source": "// SPDX-License-Identifier: MIT\r\npragma solidity ^0.8.0;\r\n\r\ncontract MultiPartyNotarization {\r\n    // Event emitted when a party signs the document\r\n    event DocumentSigned(\r\n        bytes32 indexed documentHash,\r\n        address indexed signer,\r\n        uint256 timestamp\r\n    );\r\n\r\n    // Event emitted when a document is fully notarized (all parties have signed)\r\n    event DocumentFullyNotarized(\r\n        bytes32 indexed documentHash,\r\n        uint256 timestamp\r\n    );\r\n\r\n    // Struct to store information about the document and its signers\r\n    struct NotarizedDocument {\r\n        address[] requiredSigners; // List of required signers for the document\r\n        mapping(address => bool) hasSigned; // Tracks which addresses have signed\r\n        uint256 signCount; // Number of signers who have signed\r\n        bool isFullyNotarized; // Status indicating whether the document is fully notarized\r\n        uint256 notarizationTime; // Timestamp when the document is fully notarized\r\n    }\r\n\r\n    // Mapping to store notarized documents by their hash\r\n    mapping(bytes32 => NotarizedDocument) public documents;\r\n\r\n    // Modifier to ensure that the sender is one of the required signers\r\n    modifier onlyRequiredSigner(bytes32 documentHash) {\r\n        require(\r\n            isRequiredSigner(documentHash, msg.sender),\r\n            \"You are not a required signer for this document.\"\r\n        );\r\n        _;\r\n    }\r\n\r\n    // Function to initialize a document with its required signers\r\n    function initializeDocument(\r\n        bytes32 documentHash,\r\n        address[] memory signers\r\n    ) external {\r\n        require(\r\n            documents[documentHash].requiredSigners.length == 0,\r\n            \"Document already initialized.\"\r\n        );\r\n        require(signers.length > 1, \"At least two signers are required.\");\r\n\r\n        // Create a new NotarizedDocument with the list of required signers\r\n        NotarizedDocument storage doc = documents[documentHash];\r\n        doc.requiredSigners = signers;\r\n    }\r\n\r\n    // Function to sign the document as a required signer\r\n    function signDocument(\r\n        bytes32 documentHash\r\n    ) external onlyRequiredSigner(documentHash) {\r\n        NotarizedDocument storage doc = documents[documentHash];\r\n\r\n        // Ensure the document is not fully notarized yet\r\n        require(!doc.isFullyNotarized, \"Document is already fully notarized.\");\r\n        // Ensure the signer hasn't signed yet\r\n        require(\r\n            !doc.hasSigned[msg.sender],\r\n            \"You have already signed this document.\"\r\n        );\r\n\r\n        // Mark the signer as having signed\r\n        doc.hasSigned[msg.sender] = true;\r\n        doc.signCount++;\r\n\r\n        // Emit event for document signing\r\n        emit DocumentSigned(documentHash, msg.sender, block.timestamp);\r\n\r\n        // If all required parties have signed, mark the document as fully notarized\r\n        if (doc.signCount == doc.requiredSigners.length) {\r\n            doc.isFullyNotarized = true;\r\n            doc.notarizationTime = block.timestamp;\r\n            emit DocumentFullyNotarized(documentHash, block.timestamp);\r\n        }\r\n    }\r\n\r\n    // Function to verify whether a document is fully notarized\r\n    function isFullyNotarized(\r\n        bytes32 documentHash\r\n    ) external view returns (bool) {\r\n        return documents[documentHash].isFullyNotarized;\r\n    }\r\n\r\n    // Function to check whether an address is a required signer for a document\r\n    function isRequiredSigner(\r\n        bytes32 documentHash,\r\n        address signer\r\n    ) public view returns (bool) {\r\n        NotarizedDocument storage doc = documents[documentHash];\r\n        for (uint i = 0; i < doc.requiredSigners.length; i++) {\r\n            if (doc.requiredSigners[i] == signer) {\r\n                return true;\r\n            }\r\n        }\r\n        return false;\r\n    }\r\n\r\n    // Helper function to hash the document off-chain (optional; typically done by AI or off-chain systems)\r\n    function hashDocument(\r\n        string memory documentContent\r\n    ) public pure returns (bytes32) {\r\n        return keccak256(abi.encodePacked(documentContent));\r\n    }\r\n}\r\n",
  "sourcePath": "C:\\Users\\Asus\\Documents\\GitHub\\AI-Blockchain-notary-system\\src\\contract\\contracts\\MultiPartyNotarization.sol",
  "compiler": {
    "name": "solc",
    "version": "0.8.0+commit.c7dfd78e.Emscripten.clang"
  },
  "schemaVersion": "3.4.16",
  "updatedAt": "2024-10-03T18:25:56.528Z",
  "networkType": "ethereum",
  "devdoc": {
    "kind": "dev",
    "methods": {},
    "version": 1
  },
  "userdoc": {
    "kind": "user",
    "methods": {},
    "version": 1
  }
}